{
  "transactions": [
    {
      "hash": "0xb0d4764dd128c7ec6b00560ead3f8b779ecbc1711710d63cdbf966659cc58dad",
      "transactionType": "CALL",
      "contractName": null,
      "contractAddress": "0x7586bc78ebd19908fc83fd794fa9df2a871f234c",
      "function": "setSmartAccountContract(address)",
      "arguments": [
        "0x25fDD492de1170cbFECb18b2aaF8d823C88eC2B4"
      ],
      "transaction": {
        "from": "0xfa893b687c0c28e6b08fb996c26bc6f5e268af0d",
        "to": "0x7586bc78ebd19908fc83fd794fa9df2a871f234c",
        "gas": "0xc210",
        "value": "0x0",
        "input": "0xdba5635000000000000000000000000025fdd492de1170cbfecb18b2aaf8d823c88ec2b4",
        "nonce": "0x10",
        "chainId": "0xaa36a7"
      },
      "additionalContracts": [],
      "isFixedGasLimit": false
    }
  ],
  "receipts": [
    {
      "status": "0x1",
      "cumulativeGasUsed": "0x1531a5d",
      "logs": [],
      "logsBloom": "0x00000000000000000000000000000000000000000000000000000000000000000000000000000000000000000000000000000000000000000000000000000000000000000000000000000000000000000000000000000000000000000000000000000000000000000000000000000000000000000000000000000000000000000000000000000000000000000000000000000000000000000000000000000000000000000000000000000000000000000000000000000000000000000000000000000000000000000000000000000000000000000000000000000000000000000000000000000000000000000000000000000000000000000000000000000000",
      "type": "0x2",
      "transactionHash": "0xb0d4764dd128c7ec6b00560ead3f8b779ecbc1711710d63cdbf966659cc58dad",
      "transactionIndex": "0xc7",
      "blockHash": "0x5227b1bde7e3c60ddd003869a0bc880363901f4809ed66101439743b7a54ec5a",
      "blockNumber": "0x840d2d",
      "gasUsed": "0x84b2",
      "effectiveGasPrice": "0x1b6d8e",
      "from": "0xfa893b687c0c28e6b08fb996c26bc6f5e268af0d",
      "to": "0x7586bc78ebd19908fc83fd794fa9df2a871f234c",
      "contractAddress": null
    }
  ],
  "libraries": [],
  "pending": [],
  "returns": {},
  "timestamp": 1751194766,
  "chain": 11155111,
  "commit": "08b85e9"
}