{
  "transactions": [
    {
      "hash": "0xeebb8356f09b0c7c39c452afa15c765a45093a6b4c7c93c4129a35803c6fa616",
      "transactionType": "CALL",
      "contractName": null,
      "contractAddress": "0x7586bc78ebd19908fc83fd794fa9df2a871f234c",
      "function": "setSmartAccountContract(address)",
      "arguments": [
        "0xAa77DCe6d78FadE3dDc8d32A5caAce9edEE9D7D2"
      ],
      "transaction": {
        "from": "0xfa893b687c0c28e6b08fb996c26bc6f5e268af0d",
        "to": "0x7586bc78ebd19908fc83fd794fa9df2a871f234c",
        "gas": "0xc210",
        "value": "0x0",
        "input": "0xdba56350000000000000000000000000aa77dce6d78fade3ddc8d32a5caace9edee9d7d2",
        "nonce": "0x6",
        "chainId": "0xaa36a7"
      },
      "additionalContracts": [],
      "isFixedGasLimit": false
    }
  ],
  "receipts": [
    {
      "status": "0x1",
      "cumulativeGasUsed": "0x1481ccd",
      "logs": [],
      "logsBloom": "0x00000000000000000000000000000000000000000000000000000000000000000000000000000000000000000000000000000000000000000000000000000000000000000000000000000000000000000000000000000000000000000000000000000000000000000000000000000000000000000000000000000000000000000000000000000000000000000000000000000000000000000000000000000000000000000000000000000000000000000000000000000000000000000000000000000000000000000000000000000000000000000000000000000000000000000000000000000000000000000000000000000000000000000000000000000000",
      "type": "0x2",
      "transactionHash": "0xeebb8356f09b0c7c39c452afa15c765a45093a6b4c7c93c4129a35803c6fa616",
      "transactionIndex": "0xd6",
      "blockHash": "0xd3d7806d2464ee19a6c96398479ea5729e220b85f2321721498f9f663b085e0a",
      "blockNumber": "0x84031d",
      "gasUsed": "0x84b2",
      "effectiveGasPrice": "0xf42c9",
      "from": "0xfa893b687c0c28e6b08fb996c26bc6f5e268af0d",
      "to": "0x7586bc78ebd19908fc83fd794fa9df2a871f234c",
      "contractAddress": null
    }
  ],
  "libraries": [],
  "pending": [],
  "returns": {},
  "timestamp": 1751163768,
  "chain": 11155111,
  "commit": "9ef5638"
}