{
  "transactions": [
    {
      "hash": "0x069f351738b804cf8eea5b2dd36cc7ed1192ab05afbdd2f2843d7e88595394b7",
      "transactionType": "CALL",
      "contractName": null,
      "contractAddress": "0x7586bc78ebd19908fc83fd794fa9df2a871f234c",
      "function": "setSmartAccountContract(address)",
      "arguments": [
        "0xc2f3e2F41605cDc09Ee290083Dccc6b891a80a5E"
      ],
      "transaction": {
        "from": "0xfa893b687c0c28e6b08fb996c26bc6f5e268af0d",
        "to": "0x7586bc78ebd19908fc83fd794fa9df2a871f234c",
        "gas": "0xc210",
        "value": "0x0",
        "input": "0xdba56350000000000000000000000000c2f3e2f41605cdc09ee290083dccc6b891a80a5e",
        "nonce": "0x7",
        "chainId": "0xaa36a7"
      },
      "additionalContracts": [],
      "isFixedGasLimit": false
    }
  ],
  "receipts": [
    {
      "status": "0x1",
      "cumulativeGasUsed": "0x143a6f3",
      "logs": [],
      "logsBloom": "0x00000000000000000000000000000000000000000000000000000000000000000000000000000000000000000000000000000000000000000000000000000000000000000000000000000000000000000000000000000000000000000000000000000000000000000000000000000000000000000000000000000000000000000000000000000000000000000000000000000000000000000000000000000000000000000000000000000000000000000000000000000000000000000000000000000000000000000000000000000000000000000000000000000000000000000000000000000000000000000000000000000000000000000000000000000000",
      "type": "0x2",
      "transactionHash": "0x069f351738b804cf8eea5b2dd36cc7ed1192ab05afbdd2f2843d7e88595394b7",
      "transactionIndex": "0xda",
      "blockHash": "0x105280d123eb6794a399e73ba461b73a8a6405e5c92d349445f20f99f8c87859",
      "blockNumber": "0x840909",
      "gasUsed": "0x84b2",
      "effectiveGasPrice": "0xae0261",
      "from": "0xfa893b687c0c28e6b08fb996c26bc6f5e268af0d",
      "to": "0x7586bc78ebd19908fc83fd794fa9df2a871f234c",
      "contractAddress": null
    }
  ],
  "libraries": [],
  "pending": [],
  "returns": {},
  "timestamp": 1751182009,
  "chain": 11155111,
  "commit": "08b85e9"
}